{
  "_format": "hh-sol-artifact-1",
  "contractName": "TestnetHolderDiscountHook",
  "sourceName": "contracts/TestnetHolderDiscountHook.sol",
  "abi": [
    {
      "inputs": [
        {
          "internalType": "bytes32",
          "name": "_testNetHolderMerkleRoot",
          "type": "bytes32"
        }
      ],
      "stateMutability": "nonpayable",
      "type": "constructor"
    },
    {
      "inputs": [
        {
          "internalType": "uint256",
          "name": "_identifier",
          "type": "uint256"
        },
        {
          "internalType": "string",
          "name": "_name",
          "type": "string"
        },
        {
          "internalType": "address",
          "name": "_buyer",
          "type": "address"
        },
        {
          "internalType": "uint256",
          "name": "_duration",
          "type": "uint256"
        },
        {
          "internalType": "uint256",
          "name": "_cost",
          "type": "uint256"
        },
        {
          "internalType": "bytes",
          "name": "_extraData",
          "type": "bytes"
        }
      ],
      "name": "calcNewPrice",
      "outputs": [
        {
          "internalType": "uint256",
          "name": "",
          "type": "uint256"
        }
      ],
      "stateMutability": "view",
      "type": "function"
    },
    {
      "inputs": [],
      "name": "deploymentTime",
      "outputs": [
        {
          "internalType": "uint256",
          "name": "",
          "type": "uint256"
        }
      ],
      "stateMutability": "view",
      "type": "function"
    },
    {
      "inputs": [
        {
          "internalType": "bytes",
          "name": "data",
          "type": "bytes"
        }
      ],
      "name": "getMerkleData",
      "outputs": [
        {
          "internalType": "bytes32[]",
          "name": "",
          "type": "bytes32[]"
        }
      ],
      "stateMutability": "pure",
      "type": "function"
    },
    {
      "inputs": [
        {
          "internalType": "address",
          "name": "_buyer",
          "type": "address"
        },
        {
          "internalType": "bytes",
          "name": "_extraData",
          "type": "bytes"
        }
      ],
      "name": "isEligibleToClaimFreeDomain",
      "outputs": [
        {
          "internalType": "bool",
          "name": "",
          "type": "bool"
        }
      ],
      "stateMutability": "view",
      "type": "function"
    },
    {
      "inputs": [
        {
          "internalType": "uint256",
          "name": "_identifier",
          "type": "uint256"
        },
        {
          "internalType": "string",
          "name": "_name",
          "type": "string"
        },
        {
          "internalType": "address",
          "name": "_buyer",
          "type": "address"
        },
        {
          "internalType": "uint256",
          "name": "_duration",
          "type": "uint256"
        },
        {
          "internalType": "uint256",
          "name": "_cost",
          "type": "uint256"
        },
        {
          "internalType": "bytes",
          "name": "_extraData",
          "type": "bytes"
        }
      ],
      "name": "newPrice",
      "outputs": [
        {
          "internalType": "uint256",
          "name": "",
          "type": "uint256"
        }
      ],
      "stateMutability": "nonpayable",
      "type": "function"
    },
    {
      "inputs": [],
      "name": "owner",
      "outputs": [
        {
          "internalType": "address",
          "name": "",
          "type": "address"
        }
      ],
      "stateMutability": "view",
      "type": "function"
    },
    {
      "inputs": [
        {
          "internalType": "bytes32",
          "name": "_newMerkleRoot",
          "type": "bytes32"
        }
      ],
      "name": "settestNetHolderMerkleRoot",
      "outputs": [],
      "stateMutability": "nonpayable",
      "type": "function"
    },
    {
      "inputs": [],
      "name": "testNetHolderMerkleRoot",
      "outputs": [
        {
          "internalType": "bytes32",
          "name": "",
          "type": "bytes32"
        }
      ],
      "stateMutability": "view",
      "type": "function"
    },
    {
      "inputs": [
        {
          "internalType": "address",
          "name": "",
          "type": "address"
        }
      ],
      "name": "testnetClaimed",
      "outputs": [
        {
          "internalType": "bool",
          "name": "",
          "type": "bool"
        }
      ],
      "stateMutability": "view",
      "type": "function"
    }
  ],
  "bytecode": "0x608060405260006004553480156200001657600080fd5b506040516200125b3803806200125b83398181016040528101906200003c9190620000d2565b426002819055508060008190555033600360006101000a81548173ffffffffffffffffffffffffffffffffffffffff021916908373ffffffffffffffffffffffffffffffffffffffff1602179055505062000104565b600080fd5b6000819050919050565b620000ac8162000097565b8114620000b857600080fd5b50565b600081519050620000cc81620000a1565b92915050565b600060208284031215620000eb57620000ea62000092565b5b6000620000fb84828501620000bb565b91505092915050565b61114780620001146000396000f3fe608060405234801561001057600080fd5b50600436106100935760003560e01c80638da5cb5b116100665780638da5cb5b1461014457806393ba731b14610162578063b845076a14610192578063e7ad00de146101b0578063ecda10f5146101e057610093565b806319072f9214610098578063232ba69d146100c8578063443b0698146100f857806380fd9d8d14610114575b600080fd5b6100b260048036038101906100ad919061066d565b6101fe565b6040516100bf91906106b5565b60405180910390f35b6100e260048036038101906100dd9190610816565b61021e565b6040516100ef9190610927565b60405180910390f35b610112600480360381019061010d9190610975565b610283565b005b61012e60048036038101906101299190610a8e565b61031d565b60405161013b9190610b6c565b60405180910390f35b61014c6103c7565b6040516101599190610b96565b60405180910390f35b61017c60048036038101906101779190610a8e565b6103ed565b6040516101899190610b6c565b60405180910390f35b61019a61042b565b6040516101a79190610bc0565b60405180910390f35b6101ca60048036038101906101c59190610bdb565b610431565b6040516101d791906106b5565b60405180910390f35b6101e861051e565b6040516101f59190610b6c565b60405180910390f35b60016020528060005260406000206000915054906101000a900460ff1681565b60606102286105d3565b60608060008551111561027857848060200190518101906102499190610dc7565b9250600083602001515111156102775782602001519150818060200190518101906102749190610ee8565b90505b5b809350505050919050565b600360009054906101000a900473ffffffffffffffffffffffffffffffffffffffff1673ffffffffffffffffffffffffffffffffffffffff163373ffffffffffffffffffffffffffffffffffffffff1614610313576040517f08c379a000000000000000000000000000000000000000000000000000000000815260040161030a90610fb4565b60405180910390fd5b8060008190555050565b6000600588889050106103b8576103e8600454116103b757610340868484610431565b156103b6576000935060018060008873ffffffffffffffffffffffffffffffffffffffff1673ffffffffffffffffffffffffffffffffffffffff16815260200190815260200160002060006101000a81548160ff02191690831515021790555060016004546103af9190611003565b6004819055505b5b5b83905098975050505050505050565b600360009054906101000a900473ffffffffffffffffffffffffffffffffffffffff1681565b60006005888890501061041c576103e86004541161041b57610410868484610431565b1561041a57600093505b5b5b83905098975050505050505050565b60005481565b6000606061048284848080601f016020809104026020016040519081016040528093929190818152602001838380828437600081840152601f19601f8201169050808301925050505050505061021e565b90506104b7816000548760405160200161049c919061107f565b60405160208183030381529060405280519060200120610524565b8015610514575060011515600160008773ffffffffffffffffffffffffffffffffffffffff1673ffffffffffffffffffffffffffffffffffffffff16815260200190815260200160002060009054906101000a900460ff16151514155b9150509392505050565b60025481565b600082610531858461053b565b1490509392505050565b60008082905060005b845181101561058657610571828683815181106105645761056361109a565b5b6020026020010151610591565b9150808061057e906110c9565b915050610544565b508091505092915050565b60008183106105a9576105a482846105bc565b6105b4565b6105b383836105bc565b5b905092915050565b600082600052816020526040600020905092915050565b6040518060800160405280606081526020016060815260200160608152602001606081525090565b6000604051905090565b600080fd5b600080fd5b600073ffffffffffffffffffffffffffffffffffffffff82169050919050565b600061063a8261060f565b9050919050565b61064a8161062f565b811461065557600080fd5b50565b60008135905061066781610641565b92915050565b60006020828403121561068357610682610605565b5b600061069184828501610658565b91505092915050565b60008115159050919050565b6106af8161069a565b82525050565b60006020820190506106ca60008301846106a6565b92915050565b600080fd5b600080fd5b6000601f19601f8301169050919050565b7f4e487b7100000000000000000000000000000000000000000000000000000000600052604160045260246000fd5b610723826106da565b810181811067ffffffffffffffff82111715610742576107416106eb565b5b80604052505050565b60006107556105fb565b9050610761828261071a565b919050565b600067ffffffffffffffff821115610781576107806106eb565b5b61078a826106da565b9050602081019050919050565b82818337600083830152505050565b60006107b96107b484610766565b61074b565b9050828152602081018484840111156107d5576107d46106d5565b5b6107e0848285610797565b509392505050565b600082601f8301126107fd576107fc6106d0565b5b813561080d8482602086016107a6565b91505092915050565b60006020828403121561082c5761082b610605565b5b600082013567ffffffffffffffff81111561084a5761084961060a565b5b610856848285016107e8565b91505092915050565b600081519050919050565b600082825260208201905092915050565b6000819050602082019050919050565b6000819050919050565b61089e8161088b565b82525050565b60006108b08383610895565b60208301905092915050565b6000602082019050919050565b60006108d48261085f565b6108de818561086a565b93506108e98361087b565b8060005b8381101561091a57815161090188826108a4565b975061090c836108bc565b9250506001810190506108ed565b5085935050505092915050565b6000602082019050818103600083015261094181846108c9565b905092915050565b6109528161088b565b811461095d57600080fd5b50565b60008135905061096f81610949565b92915050565b60006020828403121561098b5761098a610605565b5b600061099984828501610960565b91505092915050565b6000819050919050565b6109b5816109a2565b81146109c057600080fd5b50565b6000813590506109d2816109ac565b92915050565b600080fd5b600080fd5b60008083601f8401126109f8576109f76106d0565b5b8235905067ffffffffffffffff811115610a1557610a146109d8565b5b602083019150836001820283011115610a3157610a306109dd565b5b9250929050565b60008083601f840112610a4e57610a4d6106d0565b5b8235905067ffffffffffffffff811115610a6b57610a6a6109d8565b5b602083019150836001820283011115610a8757610a866109dd565b5b9250929050565b60008060008060008060008060c0898b031215610aae57610aad610605565b5b6000610abc8b828c016109c3565b985050602089013567ffffffffffffffff811115610add57610adc61060a565b5b610ae98b828c016109e2565b97509750506040610afc8b828c01610658565b9550506060610b0d8b828c016109c3565b9450506080610b1e8b828c016109c3565b93505060a089013567ffffffffffffffff811115610b3f57610b3e61060a565b5b610b4b8b828c01610a38565b92509250509295985092959890939650565b610b66816109a2565b82525050565b6000602082019050610b816000830184610b5d565b92915050565b610b908161062f565b82525050565b6000602082019050610bab6000830184610b87565b92915050565b610bba8161088b565b82525050565b6000602082019050610bd56000830184610bb1565b92915050565b600080600060408486031215610bf457610bf3610605565b5b6000610c0286828701610658565b935050602084013567ffffffffffffffff811115610c2357610c2261060a565b5b610c2f86828701610a38565b92509250509250925092565b600080fd5b600080fd5b60005b83811015610c63578082015181840152602081019050610c48565b60008484015250505050565b6000610c82610c7d84610766565b61074b565b905082815260208101848484011115610c9e57610c9d6106d5565b5b610ca9848285610c45565b509392505050565b600082601f830112610cc657610cc56106d0565b5b8151610cd6848260208601610c6f565b91505092915050565b600060808284031215610cf557610cf4610c3b565b5b610cff608061074b565b9050600082015167ffffffffffffffff811115610d1f57610d1e610c40565b5b610d2b84828501610cb1565b600083015250602082015167ffffffffffffffff811115610d4f57610d4e610c40565b5b610d5b84828501610cb1565b602083015250604082015167ffffffffffffffff811115610d7f57610d7e610c40565b5b610d8b84828501610cb1565b604083015250606082015167ffffffffffffffff811115610daf57610dae610c40565b5b610dbb84828501610cb1565b60608301525092915050565b600060208284031215610ddd57610ddc610605565b5b600082015167ffffffffffffffff811115610dfb57610dfa61060a565b5b610e0784828501610cdf565b91505092915050565b600067ffffffffffffffff821115610e2b57610e2a6106eb565b5b602082029050602081019050919050565b600081519050610e4b81610949565b92915050565b6000610e64610e5f84610e10565b61074b565b90508083825260208201905060208402830185811115610e8757610e866109dd565b5b835b81811015610eb05780610e9c8882610e3c565b845260208401935050602081019050610e89565b5050509392505050565b600082601f830112610ecf57610ece6106d0565b5b8151610edf848260208601610e51565b91505092915050565b600060208284031215610efe57610efd610605565b5b600082015167ffffffffffffffff811115610f1c57610f1b61060a565b5b610f2884828501610eba565b91505092915050565b600082825260208201905092915050565b7f4f6e6c79206f776e65722063616e20757064617465206d65726b6c6520726f6f60008201527f7400000000000000000000000000000000000000000000000000000000000000602082015250565b6000610f9e602183610f31565b9150610fa982610f42565b604082019050919050565b60006020820190508181036000830152610fcd81610f91565b9050919050565b7f4e487b7100000000000000000000000000000000000000000000000000000000600052601160045260246000fd5b600061100e826109a2565b9150611019836109a2565b925082820190508082111561103157611030610fd4565b5b92915050565b60008160601b9050919050565b600061104f82611037565b9050919050565b600061106182611044565b9050919050565b6110796110748261062f565b611056565b82525050565b600061108b8284611068565b60148201915081905092915050565b7f4e487b7100000000000000000000000000000000000000000000000000000000600052603260045260246000fd5b60006110d4826109a2565b91507fffffffffffffffffffffffffffffffffffffffffffffffffffffffffffffffff820361110657611105610fd4565b5b60018201905091905056fea264697066735822122028ef39e0bec42b2afb015231016dcf12e5981c9517a2eb374ef8e6cd9011f9e664736f6c63430008140033",
  "linkReferences": {},
  "deployedLinkReferences": {}
}